:100000000C9446000C9450000C9450000C9450003A
:100010000C9450000C9450000C9450000C94500020
:100020000C9450000C9450000C9450000C94500010
:100030000C9450000C9450000C9450000C94500000
:100040000C9450000C9450000C9450000C945000F0
:100050000C9450000C9450000C9450000C945000E0
:100060000C9450000C9450000C9450000C945000D0
:100070000C9450000C9450000C9450000C945000C0
:100080000C9450000C9450000C94500011241FBE8E
:10009000CFEFD0E1DEBFCDBF0E9474000C9483008F
:1000A0000C9400009093900089B95998579A8AB19E
:1000B00088618AB9E5E9F0E080818E6080830895E7
:1000C0005D9BFECF8CB108955D9BFECF8CB90895EA
:1000D000CF93DF93EC018991882319F00E9464008B
:1000E000FACFDF91CF910895BD9A84E190E00E940C
:1000F00052000E9460008823E1F38F5F0E94640039
:0A01000080E090E00895F894FFCF2E
:00000001FF
