:100000000C9446000C9450000C9450000C9450003A
:100010000C9450000C9450000C9450000C94500020
:100020000C9450000C9450000C9450000C94500010
:100030000C9450000C9450000C9450000C94500000
:100040000C9450000C9450000C9450000C945000F0
:100050000C9450000C9450000C9450000C945000E0
:100060000C9450000C9450000C9450000C945000D0
:100070000C9450000C9450000C9450000C945000C0
:100080000C9450000C9450000C94500011241FBE8E
:10009000CFEFD0E1DEBFCDBF0E9473000C9486008D
:1000A0000C9400009093900089B9579A8AB18861A6
:1000B0008AB9E5E9F0E080818E60808308955D9BD8
:1000C000FECF8CB108955D9BFECF8CB90895CF9380
:1000D000DF93EC018991882319F00E946300FACF25
:1000E000DF91CF910895BD9A84E190E00E94520083
:1000F0000E945F008823E1F381E40E94630087EEA1
:100100009DEF0197F1F700C00000F2CFF894FFCF08
:00000001FF
