:100000000C9446000C9458000C9458000C94580022
:100010000C9458000C9458000C9458000C94580000
:100020000C9458000C9458000C9458000C945800F0
:100030000C9458000C9458000C9458000C945800E0
:100040000C9458000C9458000C94A3000C94580085
:100050000C9458000C9458000C9458000C945800C0
:100060000C9458000C9458000C9458000C945800B0
:100070000C9458000C9458000C9458000C945800A0
:100080000C9458000C9458000C94580011241FBE76
:10009000CFEFD0E1DEBFCDBF21E0A0E0B1E001C0F5
:1000A0001D92A230B207E1F70E94D0000C94E2004A
:1000B0000C9400008FB9779BFECF8FB10895CF933A
:1000C000C82F892F0E945A008C2F0E945A001D9A17
:1000D0001D98CF91089587B3866087BBBB98149A0B
:1000E0001C98159A1D988DB180658DB9709A80E025
:1000F00090E00C945F0010920101109200011092A8
:10010000900084E189B95998579A8AB188618AB96F
:10011000E5E9F0E0808186608083789408955D9BB6
:10012000FECF8CB90895CF93DF93EC01899188239A
:1001300019F00E948F00FACFDF91CF9108955D9B57
:10014000FECF8CB108951F920F920FB60F9211241B
:100150000BB60F922F933F934F935F936F937F93C1
:100160008F939F93AF93BF93EF93FF930E949F0052
:100170008093000181E080930101FF91EF91BF9195
:10018000AF919F918F917F916F915F914F913F912F
:100190002F910F900BBE0F900FBE0F901F901895D0
:1001A0002FE186ED93E1215080409040E1F700C0BF
:1001B00000000E947B000E946B0080E994E90E948D
:0801C0005F00FFCFF894FFCFB0
:00000001FF
