:100000000C9446000C9458000C9458000C94580022
:100010000C9458000C9458000C9458000C94580000
:100020000C9458000C9458000C9458000C945800F0
:100030000C9458000C9458000C9458000C945800E0
:100040000C9458000C9458000C9482000C945800A6
:100050000C9458000C9458000C9458000C945800C0
:100060000C9458000C9458000C9458000C945800B0
:100070000C9458000C9458000C9458000C945800A0
:100080000C9458000C9458000C94580011241FBE76
:10009000CFEFD0E1DEBFCDBF21E0A0E0B1E001C0F5
:1000A0001D92A230B207E1F70E94AF000C94BC0091
:1000B0000C94000010920101109200011092900027
:1000C00084E189B95998579A8AB188618AB9E5E972
:1000D000F0E0808186608083789408955D9BFECFF8
:1000E0008CB108955D9BFECF8CB90895CF93DF93BB
:1000F000EC018991882319F00E947200FACFDF91F8
:10010000CF9108951F920F920FB60F9211240BB644
:100110000F922F933F934F935F936F937F938F93A0
:100120009F93AF93BF93EF93FF930E946E008093D2
:10013000000181E080930101FF91EF91BF91AF91A8
:100140009F918F917F916F915F914F913F912F91EF
:100150000F900BBE0F900FBE0F901F9018950E942E
:100160005A00809101018130E1F7109201018091E4
:0C01700000010E947200F5CFF894FFCF50
:00000001FF
