:100000000C9446000C94E7000C9465000C94650079
:100010000C9465000C9465000C9465000C946500CC
:100020000C9465000C9465000C9465000C946500BC
:100030000C9465000C9465000C9465000C946500AC
:100040000C9465000C9465000C94B0000C94650051
:100050000C9465000C9465000C9465000C9465008C
:100060000C9465000C9465000C9465000C9465007C
:100070000C9465000C9465000C9465000C9465006C
:100080000C9465000C9465000C94650011241FBE4F
:10009000CFEFD0E1DEBFCDBF11E0A0E0B1E0E6EEF2
:1000A000F2E000E00BBF02C007900D92A630B1074E
:1000B000D9F721E0A6E0B1E001C01D92AB30B20754
:1000C000E1F70E94F6000C9471010C9400008FB9C6
:1000D000779BFECF8FB10895CF93C82F892F0E94B1
:1000E00067008C2F0E9467001D9A1D98CF9108957C
:1000F00087B3866087BBBB98149A1C98159A1D9885
:100100008DB180658DB9709A80E090E00C946C00A0
:1001100010920701109206011092900084E189B9B3
:100120005998579A8AB188618AB9E5E9F0E08081E7
:1001300086608083789408955D9BFECF8CB9089586
:10014000CF93DF93EC018991882319F00E949C00E2
:10015000FACFDF91CF9108955D9BFECF8CB10895CA
:100160001F920F920FB60F9211240BB60F922F937E
:100170003F934F935F936F937F938F939F93AF932F
:10018000BF93EF93FF930E94AC008093060181E040
:1001900080930701FF91EF91BF91AF919F918F9154
:1001A0007F916F915F914F913F912F910F900BBE77
:1001B0000F900FBE0F901F9018958898EAE6F0E018
:1001C00080818360808389B7816089BF08951F9291
:1001D0000F920FB60F9211248F9381E08093080144
:1001E0008F910F900FBE0F901F901895CF93DF93B4
:1001F000CDB7DEB7E2970FB6F894DEBF0FBECDBF26
:100200002FE186ED93E1215080409040E1F700C05E
:1002100000000E9488000E9478000E94DD0060E0DB
:1002200071E0CE0101960E946A01CE0101960E9402
:10023000A0002FE987EF93E0215080409040E1F744
:1002400000C0000010920A0110920901809109017A
:1002500090910A010E946C0083EF9EE70197F1F7ED
:1002600000C000008FE0E82EF12C01E010E080914A
:1002700008018823C1F010920801F0920A01E0926F
:1002800009018091090190910A010E946C0081E4AA
:100290000E949C009FEC2BEF81E091502040804019
:1002A000E1F700C0000081E60E949C009FEC2BEF6C
:1002B00081E0915020408040E1F700C000001093A1
:1002C0000A01009309018091090190910A010E949D
:1002D0006C00CDCFFB01DC0101900D920020E1F715
:0602E0000895F894FFCF21
:0602E600494E49540000DE
:00000001FF
